{
  "contractName": "TasksContract",
  "abi": [
    {
      "inputs": [],
      "stateMutability": "nonpayable",
      "type": "constructor"
    },
    {
      "anonymous": false,
      "inputs": [
        {
          "indexed": false,
          "internalType": "uint256",
          "name": "id",
          "type": "uint256"
        },
        {
          "indexed": false,
          "internalType": "string",
          "name": "title",
          "type": "string"
        },
        {
          "indexed": false,
          "internalType": "string",
          "name": "description",
          "type": "string"
        },
        {
          "indexed": false,
          "internalType": "bool",
          "name": "done",
          "type": "bool"
        },
        {
          "indexed": false,
          "internalType": "uint256",
          "name": "createdAt",
          "type": "uint256"
        },
        {
          "indexed": false,
          "internalType": "string",
          "name": "price",
          "type": "string"
        }
      ],
      "name": "TaskCreated",
      "type": "event"
    },
    {
      "anonymous": false,
      "inputs": [
        {
          "indexed": false,
          "internalType": "uint256",
          "name": "id",
          "type": "uint256"
        },
        {
          "indexed": false,
          "internalType": "bool",
          "name": "done",
          "type": "bool"
        }
      ],
      "name": "TaskToggledDone",
      "type": "event"
    },
    {
      "inputs": [
        {
          "internalType": "uint256",
          "name": "",
          "type": "uint256"
        }
      ],
      "name": "tasks",
      "outputs": [
        {
          "internalType": "uint256",
          "name": "id",
          "type": "uint256"
        },
        {
          "internalType": "string",
          "name": "title",
          "type": "string"
        },
        {
          "internalType": "string",
          "name": "description",
          "type": "string"
        },
        {
          "internalType": "bool",
          "name": "done",
          "type": "bool"
        },
        {
          "internalType": "uint256",
          "name": "createdAt",
          "type": "uint256"
        },
        {
          "internalType": "string",
          "name": "price",
          "type": "string"
        }
      ],
      "stateMutability": "view",
      "type": "function",
      "constant": true
    },
    {
      "inputs": [],
      "name": "tasksCounter",
      "outputs": [
        {
          "internalType": "uint256",
          "name": "",
          "type": "uint256"
        }
      ],
      "stateMutability": "view",
      "type": "function",
      "constant": true
    },
    {
      "stateMutability": "payable",
      "type": "receive",
      "payable": true
    },
    {
      "inputs": [
        {
          "internalType": "string",
          "name": "_title",
          "type": "string"
        },
        {
          "internalType": "string",
          "name": "_description",
          "type": "string"
        },
        {
          "internalType": "string",
          "name": "_price",
          "type": "string"
        }
      ],
      "name": "createTask",
      "outputs": [],
      "stateMutability": "nonpayable",
      "type": "function"
    },
    {
      "inputs": [
        {
          "internalType": "uint256",
          "name": "_id",
          "type": "uint256"
        }
      ],
      "name": "toggleDone",
      "outputs": [],
      "stateMutability": "payable",
      "type": "function",
      "payable": true
    }
  ],
  "bytecode": "0x608060405260006001553480156200001657600080fd5b50620000ad6040518060400160405280600481526020017f46696174000000000000000000000000000000000000000000000000000000008152506040518060600160405280602c815260200162001192602c91396040518060400160405280600181526020017f3100000000000000000000000000000000000000000000000000000000000000815250620000b360201b60201c565b620004e3565b60016000815480929190620000c89062000426565b91905055506040518060c001604052806001548152602001848152602001838152602001600015158152602001428152602001828152506002600060015481526020019081526020016000206000820151816000015560208201518160010190805190602001906200013c929190620001f3565b5060408201518160020190805190602001906200015b929190620001f3565b5060608201518160030160006101000a81548160ff0219169083151502179055506080820151816004015560a0820151816005019080519060200190620001a4929190620001f3565b509050507f3b0bc3bb50529e853f3596a143fbe244f94860b4d9e6ff945018e184120c7315600154848460004286604051620001e69695949392919062000306565b60405180910390a1505050565b8280546200020190620003f0565b90600052602060002090601f01602090048101928262000225576000855562000271565b82601f106200024057805160ff191683800117855562000271565b8280016001018555821562000271579182015b828111156200027057825182559160200191906001019062000253565b5b50905062000280919062000284565b5090565b5b808211156200029f57600081600090555060010162000285565b5090565b620002ae81620003a4565b82525050565b6000620002c18262000388565b620002cd818562000393565b9350620002df818560208601620003ba565b620002ea81620004d2565b840191505092915050565b6200030081620003b0565b82525050565b600060c0820190506200031d6000830189620002f5565b8181036020830152620003318188620002b4565b90508181036040830152620003478187620002b4565b9050620003586060830186620002a3565b620003676080830185620002f5565b81810360a08301526200037b8184620002b4565b9050979650505050505050565b600081519050919050565b600082825260208201905092915050565b60008115159050919050565b6000819050919050565b60005b83811015620003da578082015181840152602081019050620003bd565b83811115620003ea576000848401525b50505050565b600060028204905060018216806200040957607f821691505b6020821081141562000420576200041f620004a3565b5b50919050565b60006200043382620003b0565b91507fffffffffffffffffffffffffffffffffffffffffffffffffffffffffffffffff82141562000469576200046862000474565b5b600182019050919050565b7f4e487b7100000000000000000000000000000000000000000000000000000000600052601160045260246000fd5b7f4e487b7100000000000000000000000000000000000000000000000000000000600052602260045260246000fd5b6000601f19601f8301169050919050565b610c9f80620004f36000396000f3fe6080604052600436106100435760003560e01c806385c3e7231461004f5780638d9776721461007a578063d2344f0a146100bc578063d81ef739146100e55761004a565b3661004a57005b600080fd5b34801561005b57600080fd5b50610064610101565b6040516100719190610970565b60405180910390f35b34801561008657600080fd5b506100a1600480360381019061009c91906108ec565b610107565b6040516100b3969594939291906109b4565b60405180910390f35b3480156100c857600080fd5b506100e360048036038101906100de9190610845565b6102e8565b005b6100ff60048036038101906100fa91906108ec565b61041e565b005b60015481565b600260205280600052604060002060009150905080600001549080600101805461013090610af4565b80601f016020809104026020016040519081016040528092919081815260200182805461015c90610af4565b80156101a95780601f1061017e576101008083540402835291602001916101a9565b820191906000526020600020905b81548152906001019060200180831161018c57829003601f168201915b5050505050908060020180546101be90610af4565b80601f01602080910402602001604051908101604052809291908181526020018280546101ea90610af4565b80156102375780601f1061020c57610100808354040283529160200191610237565b820191906000526020600020905b81548152906001019060200180831161021a57829003601f168201915b5050505050908060030160009054906101000a900460ff169080600401549080600501805461026590610af4565b80601f016020809104026020016040519081016040528092919081815260200182805461029190610af4565b80156102de5780601f106102b3576101008083540402835291602001916102de565b820191906000526020600020905b8154815290600101906020018083116102c157829003601f168201915b5050505050905086565b600160008154809291906102fb90610b57565b91905055506040518060c0016040528060015481526020018481526020018381526020016000151581526020014281526020018281525060026000600154815260200190815260200160002060008201518160000155602082015181600101908051906020019061036d92919061071d565b50604082015181600201908051906020019061038a92919061071d565b5060608201518160030160006101000a81548160ff0219169083151502179055506080820151816004015560a08201518160050190805190602001906103d192919061071d565b509050507f3b0bc3bb50529e853f3596a143fbe244f94860b4d9e6ff945018e184120c7315600154848460004286604051610411969594939291906109b4565b60405180910390a1505050565b6000600260008381526020019081526020016000206040518060c00160405290816000820154815260200160018201805461045890610af4565b80601f016020809104026020016040519081016040528092919081815260200182805461048490610af4565b80156104d15780601f106104a6576101008083540402835291602001916104d1565b820191906000526020600020905b8154815290600101906020018083116104b457829003601f168201915b505050505081526020016002820180546104ea90610af4565b80601f016020809104026020016040519081016040528092919081815260200182805461051690610af4565b80156105635780601f1061053857610100808354040283529160200191610563565b820191906000526020600020905b81548152906001019060200180831161054657829003601f168201915b505050505081526020016003820160009054906101000a900460ff16151515158152602001600482015481526020016005820180546105a190610af4565b80601f01602080910402602001604051908101604052809291908181526020018280546105cd90610af4565b801561061a5780601f106105ef5761010080835404028352916020019161061a565b820191906000526020600020905b8154815290600101906020018083116105fd57829003601f168201915b5050505050815250509050806060015115816060019015159081151581525050806002600084815260200190815260200160002060008201518160000155602082015181600101908051906020019061067492919061071d565b50604082015181600201908051906020019061069192919061071d565b5060608201518160030160006101000a81548160ff0219169083151502179055506080820151816004015560a08201518160050190805190602001906106d892919061071d565b509050507f3a359256e016dcfa8426ec503e08484999d6fcfb8c0f6084dc9e63374d83842982826060015160405161071192919061098b565b60405180910390a15050565b82805461072990610af4565b90600052602060002090601f01602090048101928261074b5760008555610792565b82601f1061076457805160ff1916838001178555610792565b82800160010185558215610792579182015b82811115610791578251825591602001919060010190610776565b5b50905061079f91906107a3565b5090565b5b808211156107bc5760008160009055506001016107a4565b5090565b60006107d36107ce84610a4f565b610a2a565b9050828152602081018484840111156107ef576107ee610c32565b5b6107fa848285610ab2565b509392505050565b600082601f83011261081757610816610c2d565b5b81356108278482602086016107c0565b91505092915050565b60008135905061083f81610c52565b92915050565b60008060006060848603121561085e5761085d610c3c565b5b600084013567ffffffffffffffff81111561087c5761087b610c37565b5b61088886828701610802565b935050602084013567ffffffffffffffff8111156108a9576108a8610c37565b5b6108b586828701610802565b925050604084013567ffffffffffffffff8111156108d6576108d5610c37565b5b6108e286828701610802565b9150509250925092565b60006020828403121561090257610901610c3c565b5b600061091084828501610830565b91505092915050565b61092281610a9c565b82525050565b600061093382610a80565b61093d8185610a8b565b935061094d818560208601610ac1565b61095681610c41565b840191505092915050565b61096a81610aa8565b82525050565b60006020820190506109856000830184610961565b92915050565b60006040820190506109a06000830185610961565b6109ad6020830184610919565b9392505050565b600060c0820190506109c96000830189610961565b81810360208301526109db8188610928565b905081810360408301526109ef8187610928565b90506109fe6060830186610919565b610a0b6080830185610961565b81810360a0830152610a1d8184610928565b9050979650505050505050565b6000610a34610a45565b9050610a408282610b26565b919050565b6000604051905090565b600067ffffffffffffffff821115610a6a57610a69610bfe565b5b610a7382610c41565b9050602081019050919050565b600081519050919050565b600082825260208201905092915050565b60008115159050919050565b6000819050919050565b82818337600083830152505050565b60005b83811015610adf578082015181840152602081019050610ac4565b83811115610aee576000848401525b50505050565b60006002820490506001821680610b0c57607f821691505b60208210811415610b2057610b1f610bcf565b5b50919050565b610b2f82610c41565b810181811067ffffffffffffffff82111715610b4e57610b4d610bfe565b5b80604052505050565b6000610b6282610aa8565b91507fffffffffffffffffffffffffffffffffffffffffffffffffffffffffffffffff821415610b9557610b94610ba0565b5b600182019050919050565b7f4e487b7100000000000000000000000000000000000000000000000000000000600052601160045260246000fd5b7f4e487b7100000000000000000000000000000000000000000000000000000000600052602260045260246000fd5b7f4e487b7100000000000000000000000000000000000000000000000000000000600052604160045260246000fd5b600080fd5b600080fd5b600080fd5b600080fd5b6000601f19601f8301169050919050565b610c5b81610aa8565b8114610c6657600080fd5b5056fea26469706673582212203042ec4bbebd31aaa0b47b7276b9ff27d6321c1689e1611d48f1909c2795f2ad64736f6c63430008060033576869746520636f6c6f722c206869676820706f7765722c2073616665747920617420616c6c2074696d6573",
  "immutableReferences": {},
  "source": "// SPDX-License-Identifier: MIT\npragma solidity ^0.8.6;\n\ncontract TasksContract {\n    address payable addressContract;\n    uint256 public tasksCounter = 0;\n\n    struct Task {\n        uint256 id;\n        string title;\n        string description;\n        bool done;\n        uint256 createdAt;\n        string price;\n    }\n\n    event TaskCreated(\n        uint256 id,\n        string title,\n        string description,\n        bool done,\n        uint256 createdAt,\n        string price\n    );\n    event TaskToggledDone(uint256 id, bool done);\n\n    mapping(uint256 => Task) public tasks;\n\n    constructor() {\n        createTask(\"Fiat\", \"White color, high power, safety at all times\", \"1\");\n    }\n\n    receive() external payable {}\n\n    function createTask(string memory _title, string memory _description, string memory _price)\n        public\n    {\n        tasksCounter++;\n        tasks[tasksCounter] = Task(\n            tasksCounter,\n            _title,\n            _description,\n            false,\n            block.timestamp,\n            _price\n        );\n        emit TaskCreated(\n            tasksCounter,\n            _title,\n            _description,\n            false,\n            block.timestamp,\n            _price\n        );\n    }\n\n    function toggleDone(uint256 _id) external payable {\n        Task memory _task = tasks[_id];\n        _task.done = !_task.done;\n        tasks[_id] = _task;\n        emit TaskToggledDone(_id, _task.done);\n    }\n} \n",
  "sourcePath": "/Users/carlopederiva/Desktop/Distributed Systems Project/contracts/TasksContract.sol",
  "compiler": {
    "name": "solc",
    "version": "0.8.6+commit.11564f7e.Emscripten.clang"
  },
  "schemaVersion": "3.4.11",
  "updatedAt": "2022-12-18T21:27:09.730Z",
  "networkType": "ethereum",
  "devdoc": {
    "kind": "dev",
    "methods": {},
    "version": 1
  },
  "userdoc": {
    "kind": "user",
    "methods": {},
    "version": 1
  }
}